:1009C40041756C644C616E6753796E6500496E5471
:1009D4006865456E6400536565596F754167616963
:1009E4006E00506C6179696E672E2E2E204B323D5D
:1009F40073746F70004B3320706C617920204B341A
:100A0400207072657620000EEE0E180D4D0C8E0BC4
:100A1400DA0B2F0A8F09F7096808E1086107E9076B
:100A240077070C06A7064705ED0598054704FC045F
:100A3400B40470043103F403BC0386035303240297
:100A4400F602CC02A4027E025A0238021801FA010C
:100A5400DE4C27400B4C08400A4C08000A4C083C6A
:100A64000A4C2C000E000E00104C08400943074CA1
:100A74000948114C5A40343C183A08415A4038410C
:100A84005A0005481445530008435A4329420D436C
:100A94005A3C0C3708455A000E415A0008455A0082
:100AA40006485A39074A5A00003F5A3D5A3B5A3DB4
:100AB4005A3F5A3D5A3B5A3D5A4E2B3D0E4D5A3AD7
:100AC4001D3A0E3A0E3A0E3A0E3A0E3A0E3A0E3AD3
:100AD4001600073A1600073A0E3A0E4E2B3A0E4D00
:100AE4005A3A0E3A0E3A0E4B5A3B2B4D5A001D3AC7
:100AF4001D3A0E3A1600073A1600073A0E3A0E3A15
:100B04000E3A0E3A0E3A0E4E2B3A0E00004D233E8C
:100B14004700064A47415A000A4D233F4700064D05
:100B2400474124000641474D233E4700064D4741B7
:100B34005A000A4D233F4700064D5A4D064F5A00AE
:100B4400064D354F1C3E5546124823482346234A3A
:100B5400473E4F4A124D124F233E284F234D234AFE
:100B6400234823482346230000FF0A55FF0AADFF0C
:0B0B74000B11FF09C4FF09D1FF09DAD3
:100E5D00E4FDFCC3ED9FEC9E5015E4FBFA0BBB00CB
:100E6D00010AEB64784A70F50DBD00010C80E42297
:0B0ECD00EF1FAC0670011E4C70F622F7
:030EDF00C2952297
:030EE200D2952284
:100E7D00A20292A6C2A5854180D2A77F027E001252
:0B0E8D000ECDC2A77F287E00020ECD14
:0E0EB300C2028F41120E7D7F027E00020E5D94
:070ED800D2028F41020E7DE2
:100E98007F147E00120E5D7F38120EB37F0C120E87
:0B0EA800B37F06120EB37F01020EB3F1
:100E24008B3E8A3F8940EF60047FC080027F80123E
:100E34000EB3E4FDE53F4540453E6013AB3EAA3F9B
:100E4400A9408D82758300120819FF600280027F19
:090E540020120ED80DBD10DC22A5
:100D1800E50875F003A42476F582E4340BF5831214
:100D2800098B8B3B8A3C893D7F10782A7420F60812
:100D3800DFFCE4F53A752A53E5082431F52B752CC8
:100D48003AE4FFAB3BAA3CA93D8F827583001208A9
:100D580019FE600A742D2FF8A6060FBF0CE57B005C
:100D68007A00792AE4FF120E247BFF3000067A0904
:0D0D780079E680047A0979F97F01020E24E2
:100DDA00300232AB2AAA2BA92C120800C394045061
:100DEA00057401120846AB2AAA2BA92C120800C3C3
:100DFA0094044024AB27AA28A929120800701904D0
:100E0A00120868D322AB2AAA2BA92CE4120868ABD1
:0A0E1A0027AA28A929120868C3229C
:100B7F008D2AA907E9700CAF2AFEFC7D0A12087AAC
:100B8F00020E5DE9C394305003020C51E9945540B5
:100B9F0003020C51E925E024ABF582E43409F58317
:100BAF00E493F52B740193F52CC39432E52B940049
:100BBF005006752B00752C32AF2A7E007C277D10D6
:100BCF00120997C004C005C006C007AE2BAF2C7C1E
:100BDF00007D02120997A804A905AA06AB07D00742
:100BEF00D006D005D0041208C88F308E2F8D2E8CD2
:100BFF002DE4FFFEFDFCAB30AA2FA92EA82DC312AA
:100C0F00095A7009753001F52FF52EF52D782D74D1
:100C1F00FF12096DEC4D4E4F602520B004D20180BC
:100C2F001E120EDFAF2CAE2B120ECD120EE2AF2C1A
:100C3F00AE2B120ECDE4FFFE0FBF00010E80CE12C1
:030C4F000EE22290
:100D8500D200C201120D18E50875F003A4246DF513
:100D950082E4340BF58312098B8B278A288929ABCA
:100DA50027AA28A929120800FF7008900001120837
:100DB50019601A200117900001120819FD120B7F06
:100DC50074022529F529E43528F52880D2120EE28A
:050DD500C200020D1830
:100C5200E4F521F522F523F524F525F526120EE219
:100C6200120E98E4F508C200120D187D087F481292
:100C72000B7F7F287E00120E5D7D087F4C120B7F5A
:100C8200A2B24003D38001C39202752700752800E7
:100C9200752924752A00752B00752C21120DDA5046
:100CA20015120D8520010F0508E508C394034003C2
:100CB200E4F508120D18A2B34003D38001C39202D7
:100CC200752700752800752926752A00752B007571
:100CD2002C23120DDA500EE5087005750802800209
:100CE2001508120D18A2B04003D38001C3920275F9
:100CF2002700752800752925752A00752B00752C8B
:100D020022120DDA4003020C82D201120EE2C2005C
:060D1200120D18020C8214
:03000000020EC12C
:0C0EC100787FE4F6D8FD758141020C52E8
:10080000BB010689828A83E0225002E722BBFE02F6
:09081000E32289828A83E4932229
:10081900BB010CE58229F582E5833AF583E0225094
:1008290006E92582F8E622BBFE06E92582F8E222DE
:0D083900E58229F582E5833AF583E49322F8
:10084600BB010989828A83F8E028F022500327F742
:1008560022BBFE05F8E328F3228A838982F8E49313
:02086600282246
:10086800BB010689828A83F0225002F722BBFE016F
:02087800F32269
:10087A00EF8DF0A4A8F0CF8CF0A428CE8DF0A42E92
:02088A00FE224C
:10088C0075F008758200EF2FFFEE33FECD33CDCC23
:10089C0033CCC58233C5829BED9AEC99E5829840A6
:1008AC000CF582EE9BFEED9AFDEC99FC0FD5F0D683
:1008BC00E4CEFBE4CDFAE4CCF9A88222B800C1B9AD
:1008CC000059BA002DEC8BF084CFCECDFCE5F0CBEB
:1008DC00F97818EF2FFFEE33FEED33FDEC33FCEB24
:1008EC0033FB10D703994004EB99FB0FD8E5E4F9DF
:1008FC00FA227818EF2FFFEE33FEED33FDEC33FCCC
:10090C00C933C910D7059BE99A4007EC9BFCE99ABF
:10091C00F90FD8E0E4C9FAE4CCFB2275F010EF2F04
:10092C00FFEE33FEED33FDCC33CCC833C810D70704
:10093C009BEC9AE899400AED9BFDEC9AFCE899F83F
:0E094C000FD5F0DAE4CDFBE4CCFAE4C8F922D2
:10095A00EB9FF5F0EA9E42F0E99D42F0E89C45F0F3
:01096A00226A
:10096B007401FF3395E0FEFDFC080808E6CF2FF677
:10097B0018E6CE3EF618E6CD3DF618E6CC3CF62250
:0C098B00E493FB740193FA740293F922C8
:10099700EC8EF0A4CCC5F0CCCDF8EFA4CEC5F02DED
:1009A700FDE43CFCE8A42EC8C5F03DFDE43CFCEFAB
:0D09B700A4FFE5F028FEE43DFDE43CFC2239
:00000001FF
