:0A0F1B00C2A58F80D2A77F017E00DF
:100F2500E4FDFCC3ED9FEC9E5015E4FBFA0BBB0002
:100F3500010AEB64784A70F50DBD00010C80E422CE
:0B105B00C2A6120F1BC2A70F020F2538
:0A106600D2A6120F1BC2A7020F252D
:100F45007F0F7E00120F257F3812105B7F0C121069
:100F55005B7F0612105B7F0112105B7F027E001221
:050F65000F25D2A522BA
:100E0A008B148A158916A2A99203C2A9C2A5EF60FA
:100E1A00047FC080027F8012105BE4F517E5154558
:100E2A001645146014AB14AA15A916851782758382
:100E3A0000120C06FF600280027F2012106605175E
:0E0E4A00E517C3941040D6D2A5A20392A922A8
:100FAE0053890F438920758DFD758BFD53877F7592
:0E0FBE009850D2ACD2AFD28EE4F51FC2022200
:081070008F993099FDC299220D
:100F6A008B118A128913AB11AA12A913120BED6005
:100F7A00127811E475F001120C89120BEDFF1210B0
:040F8A007080E3226E
:08107800120F6A7F0A021070DA
:03108C00A202229B
:100D5E008B0E8A0F89108D11C2ACE4F512E512C309
:100D6E00951F502CE5122401FFE433FEC3EF9511BD
:100D7E007480F86E98501974432512F8E6AB0EAADB
:100D8E000FA910851282758300120C67051280CD93
:100D9E00AB0EAA0FA910851282758300E4120C67A0
:080DAE00E4F51FC202D2AC22E1
:03002300020D04C7
:100D0400C0E0C0D075D000C000C004C005C006C09B
:100D140007309837C298AF99EF640D602EBF0A0B65
:100D2400E51FD394004024D202802020021DE51F39
:100D34002401FDE433FCC3ED9418EC6480948050EA
:100D44000AAE1F051F74432EF8A607D007D006D09D
:0A0D540005D004D000D0D0D0E0326A
:100B10007A636F64650067726F6B00637572736FE1
:100B20007200526561647920204B333D73746172A9
:100B30007400543A0050494E4700504F4E47004C05
:100B400043447C4C307C004C43447C4C317C00540E
:100B500041524745547C0042555A5A7C6F666600A4
:100B6000535441547C69646C6500535441547C7205
:100B7000756E7C0052554E4E494E472E2E2E20202B
:100B80002020202000535441547C646F6E657C000B
:100B9000444F4E4520204B323D41434B2020200006
:100BA000535441547C6661696C7C004641494C2039
:100BB00020202020202020202020200048454C4CB0
:100BC0004F0042544E3A53544152540053544152F0
:100BD000542073656E742E2E2E2020200054415216
:0D0BE0004745543A0042544E3A41434B0001
:100F8E00E4FDFCC3ED9FEC9E5015E4FBFA0BBB0099
:100F9E00010AEB64784A70F50DBD00010C80E42265
:0F0DB600120FCC8B178A1889197B007A007932BB
:100DC5008B148A158916E4FFE51845194517601334
:100DD500AB17AA18A9198F82758300120C06FE603D
:100DE5000280027E20AB14AA15A9168F8275830096
:100DF500EE120C670FBF10D0AB14AA15A916900000
:050E050010E4020C677F
:100FCC00E51AB401077BFF7A0B791022E51A7BFF37
:0D0FDC00B402057A0B7916227A0B791B22DC
:100C99007517FF75180B7519227B007A00792112D7
:100CA9000DC57517FF75180B751932120DBF120F87
:100CB900CC8B118A128913E4FFAB11AA12A9138FE5
:100CC90082758300120C06FE600A74342FF8A6069A
:100CD9000FBF0EE5EFC3940E500974342FF8762038
:100CE9000F80F1E47842F6FB7A007921FF120E0AAF
:0B0CF9007B007A0079327F01020E0AB6
:100E5800300332AB11AA12A913120BEDC39405503B
:100E6800057401120C33AB11AA12A913120BEDC3AE
:100E780094054024AB0EAA0FA910120BED701904AB
:100E8800120C55D322AB11AA12A913E4120C55ABBC
:0A0E98000EAA0FA910120C55C32278
:060EE400AB0EAA0FA910DD
:100EEA008B118A128913AB14AA15A916120BED607D
:100EFA001E7814E475F001120C89120BEDFF7811BB
:100F0A00E475F001120C89120BED6F60D9C322D37C
:010F1A0022B4
:050FE900F9E4350FFAE8
:100FEE00120BEDFFB47A04751A0122EFB467047583
:070FFE001A0222E4F51A2299
:0D1042005389F0438901D2A9D2AFC28C229C
:03000B00021030B0
:10103000C0E0E51BF58CE51CF58A300102B2A5D0B5
:02104000E0329C
:07108000C201C28CD2A522BF
:10101C00AD07AC068C1B8D1C8C8CAF05EFF58AD202
:04102C0001D28C223F
:061005007D647C007EFE0C
:10100B00AB05AA0412101CAF03AE02120F8E021016
:01101B008054
:05108700C20002108010
:100EA200E51D700590FE0A8021E51DB4010590FE46
:100EB200338017E51DB4020590FE56800DE51DB482
:100EC200030590FE65800390FE80AF82AE837D377E
:100ED2007C0012100B051DE51DD394044003E4F5BC
:020EE2001D22CF
:100800008B0E8A0F89107514FF75150B751635122E
:100810000EEA50097BFF7A0B793A0210787514FFC3
:1008200075150B75163F120EE45036E5102407F9C6
:10083000E4350F850E17F51889197B007A007921A8
:10084000120DC57B007A007921E4FF120E0AE51E25
:100850007003751E01E51E640160030209C8020EE3
:10086000A27514FF75150B751647120EE4501BE5A3
:10087000102407F9E4350F850E17F518120DBD7B0E
:10088000007A0079327F01020E0A7514FF75150B8C
:1008900075164F120EE45013AB0EE5102407120F1D
:1008A000E9E51E60030209C80209C57514FF751544
:1008B0000B751657120EE450030210877514FF755E
:1008C000150B751660120EE45009E4F51E12108720
:1008D0000209C57514FF75150B75166A120EE450E2
:1008E00048751E01E4F51DAB0EE5102409120FE951
:1008F0001210877517FF75180B7519747B007A0035
:100900007921120DC5120DB67B007A007921E4FF22
:10091000120E0A7B007A0079327F01120E0A7D37AF
:100920007C007F337EFE02100B7514FF75150B756E
:100930001685120EE45040AB0EE510240A120FE9A2
:100940007517FF75180B7519907B007A00792112C5
:100950000DC5120DB67B007A007921E4FF120E0A54
:100960007B007A0079327F01120E0A751E02D200D6
:100970007F657EFE02101C7514FF75150B7516A0A1
:10098000120EE450437517FF75180B7519AB7B00F9
:100990007A007921120DC5E510240AF9E4350F8596
:1009A0000E17F518120DBD7B007A007921E4FF12B5
:1009B0000E0A7B007A0079327F01120E0A7F0A123A
:0909C0001005E4F51E120C992249
:1009C900E4F508F509F50AF50BF50CF50DF51EF535
:1009D9001AC200F51DD2A5121042120F45120FAE10
:1009E9007F651210057BFF7A0B79BC121078120C07
:1009F9009912108C50147B007A00795B7D18120DC6
:100A09005E7B007A00795B120800A2B24003D380B2
:100A190001C39203750E00750F0075100B75110057
:100A2900751200751308120E585043E51E703F7B6E
:100A3900FF7A0B79C21210787D327C007F567EFED8
:100A490012100B7517FF75180B7519CC7B007A00FE
:100A59007921120DC5120DB67B007A007921E4FFC8
:100A6900120E0A7B007A0079327F01120E0AA2B3B4
:100A79004003D38001C39203750E00750F007510F2
:100A89000D75110075120075130A120E585021E5E3
:100A99001E701D051AE51A94024003E4F51A120C9A
:100AA900997BFF7A0B79DD120F6A120FCC1210783D
:100AB900A2B04003D38001C39203750E00750F00E5
:100AC90075100C751100751200751309120E585026
:100AD90017E51EB40212121087E4F51E7BFF7A0B8C
:100AE90079E5121078120C992000030209FAE51E23
:100AF900640260030209FA3001030209FA7F657E84
:070B0900FE12101C0209FAA4
:0300000002104F9C
:0C104F00787FE4F6D8FD7581720209C9B3
:100BED00BB010689828A83E0225002E722BBFE0206
:090BFD00E32289828A83E4932239
:100C0600BB010CE58229F582E5833AF583E02250A3
:100C160006E92582F8E622BBFE06E92582F8E222ED
:0D0C2600E58229F582E5833AF583E4932207
:100C3300BB010989828A83F8E028F022500327F751
:100C430022BBFE05F8E328F3228A838982F8E49322
:020C5300282255
:100C5500BB010689828A83F0225002F722BBFE017E
:020C6500F32278
:100C6700F8BB010DE58229F582E5833AF583E8F0C3
:100C7700225006E92582C8F622BBFE05E92582C86F
:020C8700F22257
:100C8900FAE6FB0808E6F925F0F618E6CA3AF6226C
:00000001FF
